S01100004C43445F4D656E75652E73726563E7
S113000071C000008EC000008CC000008AC00000D7
S113001088C0000086C0000084C0000082C00000C8
S113002080C000007EC000007CC000007AC00000D8
S113003078C0000076C0000074C0000072C00000E8
S113004070C000006EC000006CC000006AC00000F8
S113005068C0000066C0000064C0000062C0000008
S113006060C000005EC000005CC000005AC0000018
S113007058C0000056C0000054C0000052C0000028
S113008050C000004EC000004CC000004AC0000038
S113009048C0000046C0000044C0000042C0000048
S11300A040C000003EC000003CC000003AC0000058
S11300B038C0000036C0000034C0000032C0000068
S11300C030C000002EC000002CC000002AC0000078
S11300D028C0000026C0000024C0000022C0000088
S11300E020C0000011241FBECFEFD1E2DEBFCDBF80
S11300F000E00CBF12E0A0E0B2E0E8EAF2E000E0C9
S11301000BBF02C007900D92A030B107D9F722E0CF
S1130110A0E0B2E001C01D92A830B207E1F7B4D06C
S1130120C1C06ECF159A8DE08A95F1F7000082B1B7
S113013012B8089592B1907F92B992B182958F705E
S1130140982B92B9EFCF0895CF93C82F82B112B8EC
S11301508C2FF0DF8C2F8295807FECDF8FEC97E083
S11301600197F1F700C00000CF9108958091050236
S1130170EBCF0895809105028D7F80930502F6CF21
S11301800895809105028C7F80930502EFCF089536
S113019081E0DACF08958FEF81B912B88FE59AEE36
S11301A00197F1F700C0000083E0C4DF8FE19EE413
S11301B00197F1F700C0000083E0BCDF8FE097E215
S11301C00197F1F700C0000083E0B4DF8FE097E20D
S11301D00197F1F700C0000082E0ACDF8FE19EE4FC
S11301E00197F1F700C0000088E2AEDF8FE0ACDFDA
S11301F0CFDF86E0A9DF9FE728E381E0915020402C
S11302008040E1F700C000000895482F882351F092
S113021080E090E0242F217030E0820F931F4695F8
S1130220C9F7089580E090E008951092070285B11F
S1130230ECDF019711F580910002811104C095B1A2
S11302409093060216C0853081F09DEC899F912D14
S11302501124969596959695990F292F220F220F82
S1130260920F891306C08E3120F09091060290936C
S113027007028F5F80930002089580910002863008
S113028010F010920002089511B885DF7ADF72DF52
S113029010920102109204021092030210920202C0
S10B02A0C4DFFECFF894FFCF88
S9030000FC
