S01100004C43445F4D656E75652E73726563E7
S113000071C000008EC000008CC000008AC00000D7
S113001088C0000086C0000084C0000082C00000C8
S113002080C000007EC000007CC000007AC00000D8
S113003078C0000076C0000074C0000072C00000E8
S113004070C000006EC000006CC000006AC00000F8
S113005068C0000066C0000064C0000062C0000008
S113006060C000005EC000005CC000005AC0000018
S113007058C0000056C0000054C0000052C0000028
S113008050C000004EC000004CC000004AC0000038
S113009048C0000046C0000044C0000042C0000048
S11300A040C000003EC000003CC000003AC0000058
S11300B038C0000036C0000034C0000032C0000068
S11300C030C000002EC000002CC000002AC0000078
S11300D028C0000026C0000024C0000022C0000088
S11300E020C0000011241FBECFEFD1E2DEBFCDBF80
S11300F000E00CBF12E0A0E0B2E0EEEBF2E000E0C2
S11301000BBF02C007900D92A630B107D9F722E0C9
S1130110A6E0B2E001C01D92A730B207E1F7BCD05F
S1130120CCC06ECF159A8DE08A95F1F7000082B1AC
S113013012B8089592B1907F92B992B182958F705E
S1130140982B92B9EFCF0895CF93C82F82B112B8EC
S11301508C2FF0DF8C2F8295807FECDF8FEC97E083
S11301600197F1F700C00000CF910895CF93C82FF5
S1130170149AE0DF149A8C2F8295807FDBDF8FEC5A
S113018097E00197F1F700C00000CF91089590E443
S1130190699F800D11248058D7CF0895809106025D
S11301A0D3CF0895809106028D7F80930602F6CF07
S11301B00895809106028C7F80930602EFCF089504
S11301C081E0C2CF08958FEF81B912B88FE59AEE1E
S11301D00197F1F700C0000083E0ACDF8FE19EE4FB
S11301E00197F1F700C0000083E0A4DF8FE097E2FD
S11301F00197F1F700C0000083E09CDF8FE097E2F5
S11302000197F1F700C0000082E094DF8FE19EE4E3
S11302100197F1F700C0000088E296DF8FE094DFD9
S1130220CFDF86E091DF9FE728E381E09150204013
S11302308040E1F700C000000895CF93DF93982F2A
S1130240862FEA01692FA3DF8881882329F021966C
S11302508DDF89918111FCCFDF91CF910895FC014D
S11302608081811118C040E052E062E0E6DF40E0A6
S113027052E065E080E0E1DF42E052E066E081E0E8
S1130280DCDF42E052E069E081E0D7DF44E052E0A5
S11302906EE081E0D2CF0895CF93DF9300D01F9218
S11302A0CDB7DEB790DF85DF7DDF19821C821B822C
S11102B01A82CE010196D3DFFCCFF894FFCF63
S10902BE3A002E00570077
S9030000FC
